:100000000C945B000C947A000C947A000C947A00A7
:100010000C947A000C947A000C947A000C947A0078
:100020000C947A000C947A000C947A000C947A0068
:100030000C947A000C94EE010C947A000C947A00E3
:100040000C947A000C947A000C947A000C947A0048
:100050000C947A000C947A000C947A000C947A0038
:100060000C947A000C947A000C947A000C947A0028
:100070000C947A000C947A000C947A000C947A0018
:100080000C947A000C947A000C947A0098029F02E7
:100090000F032103BB02D702F30238034A035C03B8
:1000A0006E03A103D303D303A703AD03B303B903C3
:1000B000BF03C503CB0311241FBECFEFD0E4DEBFC7
:1000C000CDBF11E0A0E0B1E0ECE9F8E000E00BBF4B
:1000D00002C007900D92AA31B107D9F721E0AAE139
:1000E000B1E001C01D92A432B207E1F70E94D8032B
:1000F0000C944C040C940000CF93DF93CDB7DEB783
:1001000081E00E94A3000000DF91CF910895CF937A
:10011000DF93CDB7DEB784E690E00E94470188E325
:100120000E94A30086E00E94A3008FE00E94A3002B
:1001300081E00E94A3008AE090E00E944701000055
:10014000DF91CF910895CF93DF931F92CDB7DEB7A4
:1001500089838BE290E02BE230E0F90120812F7B54
:10016000FC01208388E290E02981FC0120838BE25E
:1001700090E02BE230E0F90120812068FC0120832F
:1001800000008BE290E02BE230E0F90120812F7734
:10019000FC01208382E090E00E94470100000F9064
:1001A000DF91CF910895CF93DF931F92CDB7DEB744
:1001B00089838BE290E02BE230E0F901208120641A
:1001C000FC01208388E290E02981FC0120838BE2FE
:1001D00090E02BE230E0F90120812068FC012083CF
:1001E00000008BE290E02BE230E0F90120812F77D4
:1001F000FC01208381E090E00E94470100000F9005
:10020000DF91CF910895CF93DF9300D000D0CDB789
:10021000DEB78A837C836B830E947C008A8189831A
:1002200011C0898191E0980F99830E9430018B81E0
:100230009C819C012F5F3F4F3C832B83FC0180817D
:100240000E94D3008B819C81FC018081882349F727
:1002500000000F900F900F900F90DF91CF910895B5
:10026000CF93DF931F92CDB7DEB789838981813128
:1002700028F4898181580E94A30004C08981815596
:100280000E94A30000000F90DF91CF910895CF93BB
:10029000DF9300D000D000D0CDB7DEB79E838D8332
:1002A0001A82198213C01C821B8206C000008B8137
:1002B0009C8101969C838B838B819C8187309340AA
:1002C000ACF389819A8101969A83898329813A8145
:1002D0008D819E812817390734F3000026960FB6CA
:1002E000F894DEBF0FBECDBFDF91CF910895CF93BD
:1002F000DF9300D01F92CDB7DEB789837B836A83FB
:1003000089818A3031F48A819B81BC018DE00E9411
:10031000770180EC90E0FC018081882F90E0807272
:100320009927892BB1F386EC90E02981FC01208389
:1003300080E090E00F900F900F90DF91CF910895A3
:10034000CF93DF93CDB7DEB781E890E02BE0FC01DF
:10035000208388E890E02DE730E0FC0131832083A2
:100360008FE690E022E0FC01208384E890E0FC012D
:100370001182108280910E0190910F01A0911001C5
:10038000B091110180931B0190931C01A0931D015A
:10039000B0931E018FE590E02FE530E0F901208158
:1003A0002068FC0120830000DF91CF910895CF9356
:1003B000DF93CDB7DEB781E890E0FC01108200004A
:1003C000DF91CF910895CF93DF93CDB7DEB781E072
:1003D00080931A010000DF91CF9108951F920F9230
:1003E00000905F000F92112400905B000F922F93FA
:1003F0003F934F935F936F937F938F939F93AF93AD
:10040000BF93EF93FF93CF93DF93CDB7DEB7809188
:100410001B0190911C01A0911D01B0911E0101973B
:10042000A109B10980931B0190931C01A0931D01A8
:10043000B0931E0180911B0190911C01A0911D01A0
:10044000B0911E01892B8A2B8B2B91F40E94E30122
:1004500080910E0190910F01A0911001B0911101B6
:1004600080931B0190931C01A0931D01B0931E016A
:100470000000DF91CF91FF91EF91BF91AF919F91DC
:100480008F917F916F915F914F913F912F910F903D
:1004900000925B000F9000925F000F901F901895E4
:1004A000CF93DF9300D000D0CDB7DEB769837A83D6
:1004B0008B839C8389819A81AB81BC8180930E015F
:1004C00090930F01A0931001B093110180910E0140
:1004D00090910F01A0911001B091110180931B0127
:1004E00090931C01A0931D01B0931E0100000F907A
:1004F0000F900F900F90DF91CF910895CF93DF93DE
:10050000CDB7DEB78091210190912201CC01A0E00E
:10051000B0E040E050E02AE030E0841B950B281763
:10052000390708F4EDC08A5B9F4FFC010C9443042B
:1005300081E090E09093220180932101EDC08091B1
:100540001F01882339F484E090E090932201809386
:100550002101DBC082E090E0909322018093210191
:1005600080912301882309F4D0C080912301815018
:1005700080932301CAC080911F01882339F485E04C
:1005800090E09093220180932101C1C082E090E02D
:10059000909322018093210180912301893008F0FA
:1005A000B6C0809123018F5F80932301B0C08091FA
:1005B0001F01882339F486E090E090932201809314
:1005C0002101A7C082E090E0909322018093210155
:1005D00080912301882309F49CC0809123018150DC
:1005E0008093230196C080911F01882339F481E014
:1005F00090E090932201809321018DC082E090E0F1
:10060000909322018093210180912301893008F089
:1006100082C0809123018F5F809323017CC08091F1
:100620001F01882339F483E090E0909322018093A6
:10063000210172C082E090E0909322018093210119
:100640006BC080911F01882339F483E090E0909380
:1006500022018093210160C087E090E09093220105
:100660008093210185E290E021E0FC01208354C0C9
:1006700080911F01882339F484E090E09093220157
:100680008093210149C088E090E0909322018093FB
:10069000210142C080911F01882339F485E090E058
:1006A000909322018093210137C089E090E09093DC
:1006B00022018093210130C080911F01882339F4E9
:1006C00086E090E0909322018093210125C08AE08A
:1006D00090E090932201809321011EC080911F0120
:1006E000882339F481E090E09093220180932101E6
:1006F00013C087E090E090932201809321010CC009
:10070000109222011092210107C0000005C00000D4
:1007100003C0000001C000008091210190912201DE
:10072000CC01A0E0B0E041E050E029E030E0841BE3
:10073000950B28173907A8F18F5A9F4FFC010C948D
:10074000430485E290E021E0FC0120832DC085E296
:1007500090E022E0FC01208327C085E290E024E0C5
:10076000FC01208321C085E290E022E0FC0120838F
:100770001BC085E290E021E0FC01208315C085E2EA
:1007800090E022E0FC0120830FC085E290E024E0AD
:10079000FC01208309C085E290E022E0FC01208377
:1007A00003C0000001C000000000DF91CF91089558
:1007B000CF93DF93CDB7DEB781E290E0FC011082EA
:1007C00082E290E02FEFFC01208384E290E02FEFA3
:1007D000FC01208385E290E0FC01108287E290E03A
:1007E0002FEFFC01208388E290E0FC0110828AE276
:1007F00090E02FEFFC01208388E290E0FC01108262
:100800006CE271E080E090E00E9450020E94A00142
:1008100085E08093230180E290E0FC018081882FB5
:1008200090E08170992721E0892B09F020E0822F48
:1008300080931F010E947E02000080911A0188238C
:10084000E1F310921A0180912301893040F40E9453
:100850007C0080912301805D0E94D300DCCF0E9448
:100860007C0062E171E081E00E940301809120013F
:100870008F5F8093200180912001833060F285E0BA
:1008800080932301C8CFEE0FFF1F0024001C0BBE76
:0C0890000790F691E02D0994F894FFCF3A
:10089C0000000002000000007701000000000100D1
:0A08AC00000057494E4E455221004E
:00000001FF
